S0140000746F6D61746F5F636C6F636B2E7372656311
S11300000C945A000C9477000C9477000C947700AD
S11300100C9477000C9477000C9477000C94770080
S11300200C9477000C9477000C9477000C94EA02FB
S11300300C9477000C9477000C9485020C94770050
S11300400C9477000C9477000C9477000C94770050
S11300500C9477000C9477000C9477000C94770040
S11300600C9477000C9477000C9477000C94770030
S11300700C9477000C9477000C9477000C94770020
S11300800C9477000C9477000C9477000C94770010
S11300900C9477000C9477000C9477000C94770000
S11300A00C9477000C9477000C9477000C947700F0
S11300B00C94770011241FBECFEFD8E0DEBFCDBF74
S11300C011E0A0E0B1E0E0E5F6E002C005900D9299
S11300D0A436B107D9F721E0A4E6B1E001C01D922E
S11300E0AA36B207E1F70E945F020C9426030C942F
S11300F000000F931F93CF93DF93EB019C01A8EEB5
S1130100B3E00E941703AB01BC018E01000F111F65
S113011020E030E0FC2FED2F0EC0401B510B620B92
S1130120730B40988F2F9E2F0197F1F7409A8F2FD2
S11301309E2F0197F1F7041715072607370768F371
S1130140DF91CF911F910F91089568EB7BE084EFCD
S113015091E00E9479002FEF80E792E021508040E7
S11301609040E1F700C0000064EC79E086E292E0A0
S11301700E9479002FEF80E792E021508040904068
S1130180E1F700C0000060ED77E088E592E00E94AE
S113019079002FEF80E792E0215080409040E1F712
S11301A000C000006CED75E08AE892E00E947900DE
S11301B02FEF80E792E0215080409040E1F700C0AB
S11301C0000008959BB11BB8611105C0429898B115
S11301D0986398B927C0613029F4439898B194631F
S11301E098B920C0623029F4449898B19C6298B9B7
S11301F019C06330B9F4459898B19C6198B912C09C
S11302008BB191914F5F5F4F292F30E0042E02C0D4
S1130210220F331F0A94E2F7282B2BB947305105DC
S113022079F7089597E0899FF0011124E45EFE4F69
S113023040E050E0E5CF9BB11BB8611105C0429886
S113024098B1986398B927C0613029F4439898B15C
S1130250946398B920C0623029F4449898B19C62A0
S113026098B919C06330B9F4459898B19C6198B9AC
S113027012C08BB191914F5F5F4F292F30E0042E54
S113028002C0220F331F0A94E2F7282B2BB9473000
S1130290510579F7089597E0899FF0011124E05002
S11302A0FF4F40E050E0E5CF60E083E00E941B0197
S11302B08FE19EE40197F1F700C0000061E082E065
S11302C00E941B018FE19EE40197F1F700C000003A
S11302D062E081E00E941B018FE19EE40197F1F747
S11302E000C0000063E080E00E941B018FE19EE4F7
S11302F00197F1F700C000000895CF938091650144
S11303008A30B0F461E080E00E94E2008FE19EE474
S11303100197F1F700C0000060E0809165010E9440
S1130320E2008FE19EE40197F1F700C0000050C0A5
S11303309DEC899F912D1124969596959695990FEC
S1130340292F220F220F920F891741F1CDEC8C9F98
S1130350812D112461E08695869586950E94E200A0
S11303608FE19EE40197F1F700C0000080916501E0
S11303708C9FC12D1124C695C695C695CC0F9C2F74
S1130380990F990FC90F60E08C1B0E94E2008FE166
S11303909EE40197F1F700C000001AC09DEC899F0C
S11303A0812D112461E08695869586950E94E20050
S11303B08FE19EE40197F1F700C0000060E080E067
S11303C00E94E2008FE19EE40197F1F700C0000073
S11303D0CF910895CF93809163018A30B0F463E0A4
S11303E080E00E94E2008FE19EE40197F1F700C0F3
S11303F0000062E0809163010E94E2008FE19EE4CC
S11304000197F1F700C0000050C09DEC899F912D29
S11304101124969596959695990F292F220F220FC0
S1130420920F891741F1CDEC8C9F812D112463E04B
S11304308695869586950E94E2008FE19EE4019759
S1130440F1F700C00000809163018C9FC12D11243D
S1130450C695C695C695CC0F9C2F990F990FC90FB9
S113046062E08C1B0E94E2008FE19EE40197F1F7A9
S113047000C000001AC09DEC899F812D112463E007
S11304808695869586950E94E2008FE19EE4019709
S1130490F1F700C0000062E080E00E94E2008FE11A
S11304A09EE40197F1F700C00000CF9108958EEF0C
S11304B08AB98CE384B98DE387B9419A08950E947F
S11304C057020E947A020E94D802789480916401B3
S11304D0811105C00E947D010E94EA01F7CF0E94AC
S11304E0540180916201882389F30E94A50010922F
S11304F06201ECCF82E084BD85BDEEE6F0E0808150
S1130500826080838EEF87BD08951F920F920FB68D
S11305100F9211242F938F939F93319928C0809128
S11305206801909169010196909369018093680133
S11305308091680190916901803293408CF180919F
S113054063018E3130F089E180936301109265017B
S113055005C08DE2809363011092650110926901D8
S113056010926801109267011092660119C0319BC4
S113057017C080916601909167010196909367017D
S1130580809366018091660190916701049744F01D
S1130590109269011092680110926701109266012D
S11305A09F918F912F910F900FBE0F901F901895D0
S11305B0109280008DE08093810088E09DE3909309
S11305C0890080938800EFE6F0E080818260808378
S11305D0299A08951F920F920FB60F9211248F93A8
S11305E08091640181111DC080916501811108C051
S11305F08CE3809365018091630181508093630152
S113060080916301811108C08DE28093630110928F
S1130610650181E08093640180916501815080933C
S113062065018F910F900FBE0F901F901895A29F98
S1130630B001B39FC001A39F700D811D1124911DB2
S1130640B29F700D811D1124911D0895F894FFCF60
S1130650010101000101010100000101010101008A
S1130660010100010101000000010100010101017B
S1130670010100000101000000000101000101006E
S1130680010101010100000100010100000101015B
S11306900001010001010100010101010101010149
S11306A0000000000101010101010101010101003B
S10706B00101012D12
S9030000FC
